{
  "_format": "hh-sol-artifact-1",
  "contractName": "NFT",
  "sourceName": "contracts/NFT.sol",
  "abi": [
    {
      "inputs": [
        {
          "internalType": "string",
          "name": "_name",
          "type": "string"
        },
        {
          "internalType": "string",
          "name": "_symbol",
          "type": "string"
        },
        {
          "internalType": "address",
          "name": "_owner",
          "type": "address"
        }
      ],
      "stateMutability": "nonpayable",
      "type": "constructor"
    },
    {
      "inputs": [],
      "name": "AlreadyInitialized",
      "type": "error"
    },
    {
      "inputs": [],
      "name": "ApprovalCallerNotOwnerNorApproved",
      "type": "error"
    },
    {
      "inputs": [],
      "name": "ApprovalQueryForNonexistentToken",
      "type": "error"
    },
    {
      "inputs": [],
      "name": "BalanceQueryForZeroAddress",
      "type": "error"
    },
    {
      "inputs": [],
      "name": "CreatorTokenBase__InvalidTransferValidatorContract",
      "type": "error"
    },
    {
      "inputs": [],
      "name": "InvalidQueryRange",
      "type": "error"
    },
    {
      "inputs": [],
      "name": "MintERC2309QuantityExceedsLimit",
      "type": "error"
    },
    {
      "inputs": [],
      "name": "MintToZeroAddress",
      "type": "error"
    },
    {
      "inputs": [],
      "name": "MintZeroQuantity",
      "type": "error"
    },
    {
      "inputs": [],
      "name": "NewOwnerIsZeroAddress",
      "type": "error"
    },
    {
      "inputs": [],
      "name": "NoHandoverRequest",
      "type": "error"
    },
    {
      "inputs": [],
      "name": "NotCompatibleWithSpotMints",
      "type": "error"
    },
    {
      "inputs": [],
      "name": "OwnerQueryForNonexistentToken",
      "type": "error"
    },
    {
      "inputs": [],
      "name": "OwnershipNotInitializedForExtraData",
      "type": "error"
    },
    {
      "inputs": [],
      "name": "RoyaltyOverflow",
      "type": "error"
    },
    {
      "inputs": [],
      "name": "RoyaltyReceiverIsZeroAddress",
      "type": "error"
    },
    {
      "inputs": [],
      "name": "SequentialMintExceedsLimit",
      "type": "error"
    },
    {
      "inputs": [],
      "name": "SequentialUpToTooSmall",
      "type": "error"
    },
    {
      "inputs": [],
      "name": "ShouldNotMintToBurnAddress",
      "type": "error"
    },
    {
      "inputs": [],
      "name": "SpotMintTokenIdTooSmall",
      "type": "error"
    },
    {
      "inputs": [],
      "name": "TokenAlreadyExists",
      "type": "error"
    },
    {
      "inputs": [],
      "name": "TransferCallerNotOwnerNorApproved",
      "type": "error"
    },
    {
      "inputs": [],
      "name": "TransferFromIncorrectOwner",
      "type": "error"
    },
    {
      "inputs": [],
      "name": "TransferToNonERC721ReceiverImplementer",
      "type": "error"
    },
    {
      "inputs": [],
      "name": "TransferToZeroAddress",
      "type": "error"
    },
    {
      "inputs": [],
      "name": "URIQueryForNonexistentToken",
      "type": "error"
    },
    {
      "inputs": [],
      "name": "Unauthorized",
      "type": "error"
    },
    {
      "anonymous": false,
      "inputs": [
        {
          "indexed": true,
          "internalType": "address",
          "name": "owner",
          "type": "address"
        },
        {
          "indexed": true,
          "internalType": "address",
          "name": "approved",
          "type": "address"
        },
        {
          "indexed": true,
          "internalType": "uint256",
          "name": "tokenId",
          "type": "uint256"
        }
      ],
      "name": "Approval",
      "type": "event"
    },
    {
      "anonymous": false,
      "inputs": [
        {
          "indexed": true,
          "internalType": "address",
          "name": "owner",
          "type": "address"
        },
        {
          "indexed": true,
          "internalType": "address",
          "name": "operator",
          "type": "address"
        },
        {
          "indexed": false,
          "internalType": "bool",
          "name": "approved",
          "type": "bool"
        }
      ],
      "name": "ApprovalForAll",
      "type": "event"
    },
    {
      "anonymous": false,
      "inputs": [
        {
          "indexed": false,
          "internalType": "bool",
          "name": "autoApproved",
          "type": "bool"
        }
      ],
      "name": "AutomaticApprovalOfTransferValidatorSet",
      "type": "event"
    },
    {
      "anonymous": false,
      "inputs": [
        {
          "indexed": true,
          "internalType": "uint256",
          "name": "fromTokenId",
          "type": "uint256"
        },
        {
          "indexed": false,
          "internalType": "uint256",
          "name": "toTokenId",
          "type": "uint256"
        },
        {
          "indexed": true,
          "internalType": "address",
          "name": "from",
          "type": "address"
        },
        {
          "indexed": true,
          "internalType": "address",
          "name": "to",
          "type": "address"
        }
      ],
      "name": "ConsecutiveTransfer",
      "type": "event"
    },
    {
      "anonymous": false,
      "inputs": [
        {
          "indexed": true,
          "internalType": "address",
          "name": "pendingOwner",
          "type": "address"
        }
      ],
      "name": "OwnershipHandoverCanceled",
      "type": "event"
    },
    {
      "anonymous": false,
      "inputs": [
        {
          "indexed": true,
          "internalType": "address",
          "name": "pendingOwner",
          "type": "address"
        }
      ],
      "name": "OwnershipHandoverRequested",
      "type": "event"
    },
    {
      "anonymous": false,
      "inputs": [
        {
          "indexed": true,
          "internalType": "address",
          "name": "oldOwner",
          "type": "address"
        },
        {
          "indexed": true,
          "internalType": "address",
          "name": "newOwner",
          "type": "address"
        }
      ],
      "name": "OwnershipTransferred",
      "type": "event"
    },
    {
      "anonymous": false,
      "inputs": [
        {
          "indexed": true,
          "internalType": "address",
          "name": "from",
          "type": "address"
        },
        {
          "indexed": true,
          "internalType": "address",
          "name": "to",
          "type": "address"
        },
        {
          "indexed": true,
          "internalType": "uint256",
          "name": "tokenId",
          "type": "uint256"
        }
      ],
      "name": "Transfer",
      "type": "event"
    },
    {
      "anonymous": false,
      "inputs": [
        {
          "indexed": false,
          "internalType": "address",
          "name": "oldValidator",
          "type": "address"
        },
        {
          "indexed": false,
          "internalType": "address",
          "name": "newValidator",
          "type": "address"
        }
      ],
      "name": "TransferValidatorUpdated",
      "type": "event"
    },
    {
      "inputs": [],
      "name": "DEFAULT_TRANSFER_VALIDATOR",
      "outputs": [
        {
          "internalType": "address",
          "name": "",
          "type": "address"
        }
      ],
      "stateMutability": "view",
      "type": "function"
    },
    {
      "inputs": [
        {
          "internalType": "address",
          "name": "to",
          "type": "address"
        },
        {
          "internalType": "uint256",
          "name": "tokenId",
          "type": "uint256"
        }
      ],
      "name": "approve",
      "outputs": [],
      "stateMutability": "payable",
      "type": "function"
    },
    {
      "inputs": [],
      "name": "autoApproveTransfersFromValidator",
      "outputs": [
        {
          "internalType": "bool",
          "name": "",
          "type": "bool"
        }
      ],
      "stateMutability": "view",
      "type": "function"
    },
    {
      "inputs": [
        {
          "internalType": "address",
          "name": "owner",
          "type": "address"
        }
      ],
      "name": "balanceOf",
      "outputs": [
        {
          "internalType": "uint256",
          "name": "",
          "type": "uint256"
        }
      ],
      "stateMutability": "view",
      "type": "function"
    },
    {
      "inputs": [],
      "name": "baseURI",
      "outputs": [
        {
          "internalType": "string",
          "name": "",
          "type": "string"
        }
      ],
      "stateMutability": "view",
      "type": "function"
    },
    {
      "inputs": [],
      "name": "cancelOwnershipHandover",
      "outputs": [],
      "stateMutability": "payable",
      "type": "function"
    },
    {
      "inputs": [
        {
          "internalType": "address",
          "name": "pendingOwner",
          "type": "address"
        }
      ],
      "name": "completeOwnershipHandover",
      "outputs": [],
      "stateMutability": "payable",
      "type": "function"
    },
    {
      "inputs": [],
      "name": "cost",
      "outputs": [
        {
          "internalType": "uint256",
          "name": "",
          "type": "uint256"
        }
      ],
      "stateMutability": "view",
      "type": "function"
    },
    {
      "inputs": [
        {
          "internalType": "uint256",
          "name": "tokenId",
          "type": "uint256"
        }
      ],
      "name": "explicitOwnershipOf",
      "outputs": [
        {
          "components": [
            {
              "internalType": "address",
              "name": "addr",
              "type": "address"
            },
            {
              "internalType": "uint64",
              "name": "startTimestamp",
              "type": "uint64"
            },
            {
              "internalType": "bool",
              "name": "burned",
              "type": "bool"
            },
            {
              "internalType": "uint24",
              "name": "extraData",
              "type": "uint24"
            }
          ],
          "internalType": "struct IERC721A.TokenOwnership",
          "name": "ownership",
          "type": "tuple"
        }
      ],
      "stateMutability": "view",
      "type": "function"
    },
    {
      "inputs": [
        {
          "internalType": "uint256[]",
          "name": "tokenIds",
          "type": "uint256[]"
        }
      ],
      "name": "explicitOwnershipsOf",
      "outputs": [
        {
          "components": [
            {
              "internalType": "address",
              "name": "addr",
              "type": "address"
            },
            {
              "internalType": "uint64",
              "name": "startTimestamp",
              "type": "uint64"
            },
            {
              "internalType": "bool",
              "name": "burned",
              "type": "bool"
            },
            {
              "internalType": "uint24",
              "name": "extraData",
              "type": "uint24"
            }
          ],
          "internalType": "struct IERC721A.TokenOwnership[]",
          "name": "",
          "type": "tuple[]"
        }
      ],
      "stateMutability": "view",
      "type": "function"
    },
    {
      "inputs": [],
      "name": "flipSale",
      "outputs": [],
      "stateMutability": "nonpayable",
      "type": "function"
    },
    {
      "inputs": [
        {
          "internalType": "uint256",
          "name": "tokenId",
          "type": "uint256"
        }
      ],
      "name": "getApproved",
      "outputs": [
        {
          "internalType": "address",
          "name": "",
          "type": "address"
        }
      ],
      "stateMutability": "view",
      "type": "function"
    },
    {
      "inputs": [],
      "name": "getTransferValidationFunction",
      "outputs": [
        {
          "internalType": "bytes4",
          "name": "functionSignature",
          "type": "bytes4"
        },
        {
          "internalType": "bool",
          "name": "isViewFunction",
          "type": "bool"
        }
      ],
      "stateMutability": "pure",
      "type": "function"
    },
    {
      "inputs": [],
      "name": "getTransferValidator",
      "outputs": [
        {
          "internalType": "address",
          "name": "validator",
          "type": "address"
        }
      ],
      "stateMutability": "view",
      "type": "function"
    },
    {
      "inputs": [
        {
          "internalType": "address",
          "name": "owner",
          "type": "address"
        },
        {
          "internalType": "address",
          "name": "operator",
          "type": "address"
        }
      ],
      "name": "isApprovedForAll",
      "outputs": [
        {
          "internalType": "bool",
          "name": "isApproved",
          "type": "bool"
        }
      ],
      "stateMutability": "view",
      "type": "function"
    },
    {
      "inputs": [],
      "name": "isSaleActive",
      "outputs": [
        {
          "internalType": "bool",
          "name": "",
          "type": "bool"
        }
      ],
      "stateMutability": "view",
      "type": "function"
    },
    {
      "inputs": [],
      "name": "maxSupply",
      "outputs": [
        {
          "internalType": "uint256",
          "name": "",
          "type": "uint256"
        }
      ],
      "stateMutability": "view",
      "type": "function"
    },
    {
      "inputs": [
        {
          "internalType": "uint256",
          "name": "count",
          "type": "uint256"
        }
      ],
      "name": "mint",
      "outputs": [],
      "stateMutability": "payable",
      "type": "function"
    },
    {
      "inputs": [],
      "name": "name",
      "outputs": [
        {
          "internalType": "string",
          "name": "",
          "type": "string"
        }
      ],
      "stateMutability": "view",
      "type": "function"
    },
    {
      "inputs": [],
      "name": "owner",
      "outputs": [
        {
          "internalType": "address",
          "name": "result",
          "type": "address"
        }
      ],
      "stateMutability": "view",
      "type": "function"
    },
    {
      "inputs": [
        {
          "internalType": "uint256",
          "name": "tokenId",
          "type": "uint256"
        }
      ],
      "name": "ownerOf",
      "outputs": [
        {
          "internalType": "address",
          "name": "",
          "type": "address"
        }
      ],
      "stateMutability": "view",
      "type": "function"
    },
    {
      "inputs": [
        {
          "internalType": "address",
          "name": "pendingOwner",
          "type": "address"
        }
      ],
      "name": "ownershipHandoverExpiresAt",
      "outputs": [
        {
          "internalType": "uint256",
          "name": "result",
          "type": "uint256"
        }
      ],
      "stateMutability": "view",
      "type": "function"
    },
    {
      "inputs": [],
      "name": "renounceOwnership",
      "outputs": [],
      "stateMutability": "payable",
      "type": "function"
    },
    {
      "inputs": [],
      "name": "requestOwnershipHandover",
      "outputs": [],
      "stateMutability": "payable",
      "type": "function"
    },
    {
      "inputs": [
        {
          "internalType": "uint256",
          "name": "tokenId",
          "type": "uint256"
        },
        {
          "internalType": "uint256",
          "name": "salePrice",
          "type": "uint256"
        }
      ],
      "name": "royaltyInfo",
      "outputs": [
        {
          "internalType": "address",
          "name": "receiver",
          "type": "address"
        },
        {
          "internalType": "uint256",
          "name": "royaltyAmount",
          "type": "uint256"
        }
      ],
      "stateMutability": "view",
      "type": "function"
    },
    {
      "inputs": [
        {
          "internalType": "address",
          "name": "from",
          "type": "address"
        },
        {
          "internalType": "address",
          "name": "to",
          "type": "address"
        },
        {
          "internalType": "uint256",
          "name": "tokenId",
          "type": "uint256"
        }
      ],
      "name": "safeTransferFrom",
      "outputs": [],
      "stateMutability": "payable",
      "type": "function"
    },
    {
      "inputs": [
        {
          "internalType": "address",
          "name": "from",
          "type": "address"
        },
        {
          "internalType": "address",
          "name": "to",
          "type": "address"
        },
        {
          "internalType": "uint256",
          "name": "tokenId",
          "type": "uint256"
        },
        {
          "internalType": "bytes",
          "name": "_data",
          "type": "bytes"
        }
      ],
      "name": "safeTransferFrom",
      "outputs": [],
      "stateMutability": "payable",
      "type": "function"
    },
    {
      "inputs": [
        {
          "internalType": "address",
          "name": "operator",
          "type": "address"
        },
        {
          "internalType": "bool",
          "name": "approved",
          "type": "bool"
        }
      ],
      "name": "setApprovalForAll",
      "outputs": [],
      "stateMutability": "nonpayable",
      "type": "function"
    },
    {
      "inputs": [
        {
          "internalType": "bool",
          "name": "autoApprove",
          "type": "bool"
        }
      ],
      "name": "setAutomaticApprovalOfTransfersFromValidator",
      "outputs": [],
      "stateMutability": "nonpayable",
      "type": "function"
    },
    {
      "inputs": [
        {
          "internalType": "string",
          "name": "uri",
          "type": "string"
        }
      ],
      "name": "setBaseURI",
      "outputs": [],
      "stateMutability": "nonpayable",
      "type": "function"
    },
    {
      "inputs": [
        {
          "internalType": "address",
          "name": "receiver",
          "type": "address"
        },
        {
          "internalType": "uint96",
          "name": "feeNumerator",
          "type": "uint96"
        }
      ],
      "name": "setDefaultRoyalty",
      "outputs": [],
      "stateMutability": "nonpayable",
      "type": "function"
    },
    {
      "inputs": [
        {
          "internalType": "address",
          "name": "transferValidator_",
          "type": "address"
        }
      ],
      "name": "setTransferValidator",
      "outputs": [],
      "stateMutability": "nonpayable",
      "type": "function"
    },
    {
      "inputs": [
        {
          "internalType": "bytes4",
          "name": "interfaceId",
          "type": "bytes4"
        }
      ],
      "name": "supportsInterface",
      "outputs": [
        {
          "internalType": "bool",
          "name": "",
          "type": "bool"
        }
      ],
      "stateMutability": "view",
      "type": "function"
    },
    {
      "inputs": [],
      "name": "symbol",
      "outputs": [
        {
          "internalType": "string",
          "name": "",
          "type": "string"
        }
      ],
      "stateMutability": "view",
      "type": "function"
    },
    {
      "inputs": [],
      "name": "teamMint",
      "outputs": [],
      "stateMutability": "nonpayable",
      "type": "function"
    },
    {
      "inputs": [
        {
          "internalType": "uint256",
          "name": "tokenId",
          "type": "uint256"
        }
      ],
      "name": "tokenURI",
      "outputs": [
        {
          "internalType": "string",
          "name": "",
          "type": "string"
        }
      ],
      "stateMutability": "view",
      "type": "function"
    },
    {
      "inputs": [
        {
          "internalType": "address",
          "name": "owner",
          "type": "address"
        }
      ],
      "name": "tokensOfOwner",
      "outputs": [
        {
          "internalType": "uint256[]",
          "name": "",
          "type": "uint256[]"
        }
      ],
      "stateMutability": "view",
      "type": "function"
    },
    {
      "inputs": [
        {
          "internalType": "address",
          "name": "owner",
          "type": "address"
        },
        {
          "internalType": "uint256",
          "name": "start",
          "type": "uint256"
        },
        {
          "internalType": "uint256",
          "name": "stop",
          "type": "uint256"
        }
      ],
      "name": "tokensOfOwnerIn",
      "outputs": [
        {
          "internalType": "uint256[]",
          "name": "",
          "type": "uint256[]"
        }
      ],
      "stateMutability": "view",
      "type": "function"
    },
    {
      "inputs": [],
      "name": "totalSupply",
      "outputs": [
        {
          "internalType": "uint256",
          "name": "result",
          "type": "uint256"
        }
      ],
      "stateMutability": "view",
      "type": "function"
    },
    {
      "inputs": [
        {
          "internalType": "address",
          "name": "from",
          "type": "address"
        },
        {
          "internalType": "address",
          "name": "to",
          "type": "address"
        },
        {
          "internalType": "uint256",
          "name": "tokenId",
          "type": "uint256"
        }
      ],
      "name": "transferFrom",
      "outputs": [],
      "stateMutability": "payable",
      "type": "function"
    },
    {
      "inputs": [
        {
          "internalType": "address",
          "name": "newOwner",
          "type": "address"
        }
      ],
      "name": "transferOwnership",
      "outputs": [],
      "stateMutability": "payable",
      "type": "function"
    },
    {
      "inputs": [
        {
          "internalType": "address",
          "name": "to",
          "type": "address"
        }
      ],
      "name": "withdrawETH",
      "outputs": [],
      "stateMutability": "nonpayable",
      "type": "function"
    }
  ],
  "bytecode": "0x6618838370f34000600a5560e06040526023608081815290620027fb60a039600b906200002d9082620002ec565b506103e7600c55600d805460ff191660011790553480156200004e57600080fd5b506040516200281e3803806200281e833981016040819052620000719162000467565b828281816002620000838382620002ec565b506003620000928282620002ec565b5050600160005550620000a4620000ee565b620000c373721c002b0059009a671d00ad1700c9748146cd1b6200013d565b50620000cc9050565b620000d781620001bf565b620000e5816101f4620001fb565b505050620004f4565b604080516000815273721c002b0059009a671d00ad1700c9748146cd1b60208201527fcc5dc080ff977b3c3a211fa63ab74f90f658f5ba9d3236e92c8f59570f442aac910160405180910390a1565b6001600160a01b03811615620001bc57803b8015620001ba576040805163fb2de5d760e01b81523060048201526102d1602482015290516001600160a01b0384169163fb2de5d791604480830192600092919082900301818387803b158015620001a657600080fd5b505af1925050508015620001b8575060015b505b505b50565b6001600160a01b0316638b78c6d8198190558060007f8be0079c531659141344cd1fd0a4f28419497f9722a3daafe3b4186f6b6457e08180a350565b6001600160601b0316612710808211156200021e5763350a88b36000526004601cfd5b8260601b80620002365763b4457eaa6000526004601cfd5b90911768aa4ec00224afccfdb7555050565b634e487b7160e01b600052604160045260246000fd5b600181811c908216806200027357607f821691505b6020821081036200029457634e487b7160e01b600052602260045260246000fd5b50919050565b601f821115620001b857600081815260208120601f850160051c81016020861015620002c35750805b601f850160051c820191505b81811015620002e457828155600101620002cf565b505050505050565b81516001600160401b0381111562000308576200030862000248565b62000320816200031984546200025e565b846200029a565b602080601f8311600181146200035857600084156200033f5750858301515b600019600386901b1c1916600185901b178555620002e4565b600085815260208120601f198616915b82811015620003895788860151825594840194600190910190840162000368565b5085821015620003a85787850151600019600388901b60f8161c191681555b5050505050600190811b01905550565b600082601f830112620003ca57600080fd5b81516001600160401b0380821115620003e757620003e762000248565b604051601f8301601f19908116603f0116810190828211818310171562000412576200041262000248565b816040528381526020925086838588010111156200042f57600080fd5b600091505b8382101562000453578582018301518183018401529082019062000434565b600093810190920192909252949350505050565b6000806000606084860312156200047d57600080fd5b83516001600160401b03808211156200049557600080fd5b620004a387838801620003b8565b94506020860151915080821115620004ba57600080fd5b50620004c986828701620003b8565b604086015190935090506001600160a01b0381168114620004e957600080fd5b809150509250925092565b6122f780620005046000396000f3fe6080604052600436106102515760003560e01c80636c0360eb11610139578063a22cb465116100b6578063c87b56dd1161007a578063c87b56dd14610693578063d5abeb01146106b3578063e985e9c5146106c9578063f04e283e146106e9578063f2fde38b146106fc578063fee81cf41461070f57600080fd5b8063a22cb465146105fe578063a9fc664e1461061e578063b88d4fde1461063e578063ba7a86b814610651578063c23dc68f1461066657600080fd5b80638da5cb5b116100fd5780638da5cb5b1461057d57806395d89b411461059657806399a2557a146105ab5780639e05d240146105cb578063a0712d68146105eb57600080fd5b80636c0360eb146104fe57806370a0823114610513578063715018a6146105335780637ba5e6211461053b5780638462151c1461055057600080fd5b806323b872dd116101d257806355f804b31161019657806355f804b314610436578063564566a8146104565780635bbb2177146104705780636221d13c1461049d5780636352211e146104be578063690d8320146104de57600080fd5b806323b872dd146103c157806325692962146103d45780632a55205a146103dc57806342842e0e1461041b57806354d1f13d1461042e57600080fd5b8063095ea7b311610219578063095ea7b31461032f578063098144d4146103425780630d705df61461035757806313faede61461037f57806318160ddd146103a357600080fd5b8063014635461461025657806301ffc9a71461029b57806304634d8d146102cb57806306fdde03146102ed578063081812fc1461030f575b600080fd5b34801561026257600080fd5b5061027e73721c002b0059009a671d00ad1700c9748146cd1b81565b6040516001600160a01b0390911681526020015b60405180910390f35b3480156102a757600080fd5b506102bb6102b6366004611ba1565b610742565b6040519015158152602001610292565b3480156102d757600080fd5b506102eb6102e6366004611bd5565b610771565b005b3480156102f957600080fd5b50610302610787565b6040516102929190611c6d565b34801561031b57600080fd5b5061027e61032a366004611c80565b610819565b6102eb61033d366004611c99565b610854565b34801561034e57600080fd5b5061027e610860565b34801561036357600080fd5b506040805163657711f560e11b81526001602082015201610292565b34801561038b57600080fd5b50610395600a5481565b604051908152602001610292565b3480156103af57600080fd5b50610395600154600054036000190190565b6102eb6103cf366004611cc3565b61089a565b6102eb610a19565b3480156103e857600080fd5b506103fc6103f7366004611cff565b610a69565b604080516001600160a01b039093168352602083019190915201610292565b6102eb610429366004611cc3565b610abe565b6102eb610ade565b34801561044257600080fd5b506102eb610451366004611dad565b610b1a565b34801561046257600080fd5b50600d546102bb9060ff1681565b34801561047c57600080fd5b5061049061048b366004611df6565b610b2e565b6040516102929190611ea8565b3480156104a957600080fd5b506009546102bb90600160a81b900460ff1681565b3480156104ca57600080fd5b5061027e6104d9366004611c80565b610b7a565b3480156104ea57600080fd5b506102eb6104f9366004611ef6565b610b85565b34801561050a57600080fd5b50610302610b99565b34801561051f57600080fd5b5061039561052e366004611ef6565b610c27565b6102eb610c6d565b34801561054757600080fd5b506102eb610c81565b34801561055c57600080fd5b5061057061056b366004611ef6565b610c9d565b6040516102929190611f11565b34801561058957600080fd5b50638b78c6d8195461027e565b3480156105a257600080fd5b50610302610cc4565b3480156105b757600080fd5b506105706105c6366004611f49565b610cd3565b3480156105d757600080fd5b506102eb6105e6366004611f8c565b610ce0565b6102eb6105f9366004611c80565b610d40565b34801561060a57600080fd5b506102eb610619366004611fa7565b610f45565b34801561062a57600080fd5b506102eb610639366004611ef6565b610fbe565b6102eb61064c366004611fda565b611077565b34801561065d57600080fd5b506102eb6110b8565b34801561067257600080fd5b50610686610681366004611c80565b6110cb565b6040516102929190612056565b34801561069f57600080fd5b506103026106ae366004611c80565b61112f565b3480156106bf57600080fd5b50610395600c5481565b3480156106d557600080fd5b506102bb6106e4366004612064565b6111aa565b6102eb6106f7366004611ef6565b61120e565b6102eb61070a366004611ef6565b61124b565b34801561071b57600080fd5b5061039561072a366004611ef6565b63389a75e1600c908152600091909152602090205490565b600061074d82611272565b8061076b5750632a55205a60e083901c9081146301ffc9a791909114175b92915050565b6107796112b2565b61078382826112cd565b5050565b6060600280546107969061208e565b80601f01602080910402602001604051908101604052809291908181526020018280546107c29061208e565b801561080f5780601f106107e45761010080835404028352916020019161080f565b820191906000526020600020905b8154815290600101906020018083116107f257829003601f168201915b5050505050905090565b60006108248261131d565b610838576108386333d1c03960e21b611369565b506000908152600660205260409020546001600160a01b031690565b61078382826001611373565b60095461010090046001600160a01b0316806108975760095460ff16610897575073721c002b0059009a671d00ad1700c9748146cd1b5b90565b60006108a582611416565b6001600160a01b0394851694909150811684146108cb576108cb62a1148160e81b611369565b60008281526006602052604090208054338082146001600160a01b0388169091141761090f576108fb86336111aa565b61090f5761090f632ce44b5f60e11b611369565b61091c86868660016114b7565b801561092757600082555b6001600160a01b038681166000908152600560205260408082208054600019019055918716808252919020805460010190554260a01b17600160e11b17600085815260046020526040812091909155600160e11b841690036109b9576001840160008181526004602052604081205490036109b75760005481146109b75760008181526004602052604090208490555b505b6001600160a01b0385168481887fddf252ad1be2c89b69c2b068fc378daa952ba7f163c4a11628f55a4df523b3ef600080a480600003610a0357610a03633a954ecd60e21b611369565b610a1087878760016114e5565b50505050505050565b60006202a30067ffffffffffffffff164201905063389a75e1600c5233600052806020600c2055337fdbf36a107da19e49527a7176a1babf963b4b0ff8cde35ee35d6cd8f1f9ac7e1d600080a250565b600082815268aa4ec00224afccfdb76020526040812054606081901c91906127109083610a9d576020515490508060601c93505b606084901b1884600019829004811182023d3d3e9396930204935090915050565b610ad983838360405180602001604052806000815250611077565b505050565b63389a75e1600c523360005260006020600c2055337ffa7b8eab7da67f412cc9575ed43464468f9bfbae89d1675917346ca6d8fe3c92600080a2565b610b226112b2565b600b610783828261210e565b60408051828152600583901b8082016020019092526060915b8015610b7257601f1980820191860101356000610b63826110cb565b8484016020015250610b479050565b509392505050565b600061076b82611416565b610b8d6112b2565b610b968161150c565b50565b600b8054610ba69061208e565b80601f0160208091040260200160405190810160405280929190818152602001828054610bd29061208e565b8015610c1f5780601f10610bf457610100808354040283529160200191610c1f565b820191906000526020600020905b815481529060010190602001808311610c0257829003601f168201915b505050505081565b60006001600160a01b038216610c4757610c476323d3ad8160e21b611369565b506001600160a01b031660009081526005602052604090205467ffffffffffffffff1690565b610c756112b2565b610c7f6000611528565b565b610c896112b2565b600d805460ff19811660ff90911615179055565b60005460609060019082828214610cbc57610cb9858484611566565b90505b949350505050565b6060600380546107969061208e565b6060610cbc848484611566565b610ce861166d565b60098054821515600160a81b0260ff60a81b199091161790556040517f6787c7f9a80aa0f5ceddab2c54f1f5169c0b88e75dd5e19d5e858a64144c7dbc90610d3590831515815260200190565b60405180910390a150565b600d5460ff16610d8c5760405162461bcd60e51b815260206004820152601260248201527153616c65206973206e6f742061637469766560701b60448201526064015b60405180910390fd5b600c5481610da1600154600054036000190190565b610dab91906121e4565b1115610df95760405162461bcd60e51b815260206004820152601860248201527f6c6f6c20746f6f20736c6f772c206d696e746564206f757400000000000000006044820152606401610d83565b60008111610e495760405162461bcd60e51b815260206004820152601a60248201527f4174206c65617374206f6e6520746f6b656e20627275682e2e2e0000000000006044820152606401610d83565b3360009081526005602052604081205460c01c9003610ee757610e6d6001826121f7565b600a54610e7a919061220a565b341015610ec05760405162461bcd60e51b8152602060048201526014602482015273125b9cdd59999a58da595b9d0814185e5b595b9d60621b6044820152606401610d83565b33600090815260056020526040902080546001600160c01b0316600160c01b179055610f3b565b80600a54610ef5919061220a565b341015610f3b5760405162461bcd60e51b8152602060048201526014602482015273125b9cdd59999a58da595b9d0814185e5b595b9d60621b6044820152606401610d83565b610b963382611675565b3360008181526007602090815260408083206001600160a01b0387168085529252909120805460ff1916841515179055906001600160a01b03167f17307eab39ab6107e8899845ad3d59bd9653f200f220920489ca2b5937696c3183604051610fb2911515815260200190565b60405180910390a35050565b610fc661166d565b6001600160a01b038116803b15159015801590610fe1575080155b15610fff576040516332483afb60e01b815260040160405180910390fd5b7fcc5dc080ff977b3c3a211fa63ab74f90f658f5ba9d3236e92c8f59570f442aac611028610860565b604080516001600160a01b03928316815291851660208301520160405180910390a1600980546001600160a01b038416610100026001600160a81b03199091161760011790556107838261168f565b61108284848461089a565b6001600160a01b0383163b156110b25761109e8484848461170f565b6110b2576110b26368d2bf6b60e11b611369565b50505050565b6110c06112b2565b610c7f336001611675565b6040805160808101825260008082526020820181905291810182905260608101919091526001821061112a5760005482101561112a575b6000828152600460205260409020546111215760001990910190611102565b61076b826117f1565b919050565b606061113a8261131d565b61114e5761114e630a14c4b560e41b611369565b6000611158611870565b9050805160000361117857604051806020016040528060008152506111a3565b806111828461187f565b604051602001611193929190612221565b6040516020818303038152906040525b9392505050565b6001600160a01b0382811660009081526007602090815260408083209385168352929052205460ff168061076b57600954600160a81b900460ff161561076b576111f2610860565b6001600160a01b0316826001600160a01b031614905092915050565b6112166112b2565b63389a75e1600c52806000526020600c20805442111561123e57636f5e88186000526004601cfd5b60009055610b9681611528565b6112536112b2565b8060601b61126957637448fbae6000526004601cfd5b610b9681611528565b60006001600160e01b03198216632b435fdb60e21b14806112a357506001600160e01b0319821663503e914d60e11b145b8061076b575061076b826118c3565b638b78c6d819543314610c7f576382b429006000526004601cfd5b6bffffffffffffffffffffffff16612710808211156112f45763350a88b36000526004601cfd5b8260601b8061130b5763b4457eaa6000526004601cfd5b90911768aa4ec00224afccfdb7555050565b60008160011161112a5760005482101561112a5760005b506000828152600460205260408120549081900361135c5761135583612250565b9250611334565b600160e01b161592915050565b8060005260046000fd5b600061137e83610b7a565b90508180156113965750336001600160a01b03821614155b156113b9576113a581336111aa565b6113b9576113b96367d9dca160e11b611369565b60008381526006602052604080822080546001600160a01b0319166001600160a01b0388811691821790925591518693918516917f8c5be1e5ebec7d5bd14f71427d1e84f3dd0314c0f7b2291e5b200ac8c7c3b92591a450505050565b6000816001116114a757506000818152600460205260409020548060000361149457600054821061145157611451636f96cda160e11b611369565b5b5060001901600081815260046020526040902054801561145257600160e01b811660000361147f57919050565b61148f636f96cda160e11b611369565b611452565b600160e01b81166000036114a757919050565b61112a636f96cda160e11b611369565b60005b818110156114de576114d685856114d184876121e4565b611911565b6001016114ba565b5050505050565b60005b818110156114de5761150485856114ff84876121e4565b611967565b6001016114e8565b60003860003847855af1610b965763b12d13eb6000526004601cfd5b638b78c6d81980546001600160a01b039092169182907f8be0079c531659141344cd1fd0a4f28419497f9722a3daafe3b4186f6b6457e0600080a355565b606081831061157f5761157f631960ccad60e11b611369565b600183101561158d57600192505b6000548080841061159c578093505b60006115a787610c27565b90508486106115b4575060005b80156116635780868603116115c857508484035b604080516001830160051b810191829052945060006115e6886110cb565b9050600081604001516115f7575080515b60005b6116038a6117f1565b925060408301516000811461161b5760009250611640565b83511561162757835192505b8b831860601b611640576001820191508a8260051b8a01525b5060018a01995083604052888a148061165857508481145b156115fa5787525050505b5050509392505050565b610c7f6112b2565b6107838282604051806020016040528060008152506119af565b6001600160a01b03811615610b9657803b8015610783576040805163fb2de5d760e01b81523060048201526102d1602482015290516001600160a01b0384169163fb2de5d791604480830192600092919082900301818387803b1580156116f557600080fd5b505af1925050508015611706575060015b15610783575050565b604051630a85bd0160e11b81526000906001600160a01b0385169063150b7a0290611744903390899088908890600401612267565b6020604051808303816000875af192505050801561177f575060408051601f3d908101601f1916820190925261177c918101906122a4565b60015b6117d4573d8080156117ad576040519150601f19603f3d011682016040523d82523d6000602084013e6117b2565b606091505b5080516000036117cc576117cc6368d2bf6b60e11b611369565b805181602001fd5b6001600160e01b031916630a85bd0160e11b149050949350505050565b60408051608081018252600080825260208201819052918101829052606081019190915260008281526004602052604090205461076b90604080516080810182526001600160a01b038316815260a083901c67ffffffffffffffff166020820152600160e01b831615159181019190915260e89190911c606082015290565b6060600b80546107969061208e565b606060a06040510180604052602081039150506000815280825b600183039250600a81066030018353600a9004806118995750819003601f19909101908152919050565b60006301ffc9a760e01b6001600160e01b0319831614806118f457506380ac58cd60e01b6001600160e01b03198316145b8061076b5750506001600160e01b031916635b5e139f60e01b1490565b6001600160a01b03838116159083161581801561192b5750805b1561194957604051635cbd944160e01b815260040160405180910390fd5b8115611955575b6114de565b80611950576114de3386868634611a0c565b6001600160a01b0383811615908316158180156119815750805b1561199f57604051635cbd944160e01b815260040160405180910390fd5b8161195057801561195057611950565b6119b98383611ab6565b6001600160a01b0383163b15610ad9576000548281035b6119e3600086838060010194508661170f565b6119f7576119f76368d2bf6b60e11b611369565b8181106119d05781600054146114de57600080fd5b6000611a16610860565b90506001600160a01b03811615611aae576001600160a01b0381163303611a3d57506114de565b60405163657711f560e11b81526001600160a01b038781166004830152868116602483015285811660448301526064820185905282169063caee23ea9060840160006040518083038186803b158015611a9557600080fd5b505afa158015611aa9573d6000803e3d6000fd5b505050505b505050505050565b6000805490829003611ad257611ad263b562e8dd60e01b611369565b611adf60008483856114b7565b60008181526004602090815260408083206001600160a01b0387164260a01b6001881460e11b17811790915580845260059092528220805468010000000000000001860201905590819003611b3d57611b3d622e076360e81b611369565b818301825b808360007fddf252ad1be2c89b69c2b068fc378daa952ba7f163c4a11628f55a4df523b3ef600080a4818160010191508103611b4257506000908155610ad991508483856114e5565b6001600160e01b031981168114610b9657600080fd5b600060208284031215611bb357600080fd5b81356111a381611b8b565b80356001600160a01b038116811461112a57600080fd5b60008060408385031215611be857600080fd5b611bf183611bbe565b915060208301356bffffffffffffffffffffffff81168114611c1257600080fd5b809150509250929050565b60005b83811015611c38578181015183820152602001611c20565b50506000910152565b60008151808452611c59816020860160208601611c1d565b601f01601f19169290920160200192915050565b6020815260006111a36020830184611c41565b600060208284031215611c9257600080fd5b5035919050565b60008060408385031215611cac57600080fd5b611cb583611bbe565b946020939093013593505050565b600080600060608486031215611cd857600080fd5b611ce184611bbe565b9250611cef60208501611bbe565b9150604084013590509250925092565b60008060408385031215611d1257600080fd5b50508035926020909101359150565b634e487b7160e01b600052604160045260246000fd5b600067ffffffffffffffff80841115611d5257611d52611d21565b604051601f8501601f19908116603f01168101908282118183101715611d7a57611d7a611d21565b81604052809350858152868686011115611d9357600080fd5b858560208301376000602087830101525050509392505050565b600060208284031215611dbf57600080fd5b813567ffffffffffffffff811115611dd657600080fd5b8201601f81018413611de757600080fd5b610cbc84823560208401611d37565b60008060208385031215611e0957600080fd5b823567ffffffffffffffff80821115611e2157600080fd5b818501915085601f830112611e3557600080fd5b813581811115611e4457600080fd5b8660208260051b8501011115611e5957600080fd5b60209290920196919550909350505050565b80516001600160a01b0316825260208082015167ffffffffffffffff169083015260408082015115159083015260609081015162ffffff16910152565b6020808252825182820181905260009190848201906040850190845b81811015611eea57611ed7838551611e6b565b9284019260809290920191600101611ec4565b50909695505050505050565b600060208284031215611f0857600080fd5b6111a382611bbe565b6020808252825182820181905260009190848201906040850190845b81811015611eea57835183529284019291840191600101611f2d565b600080600060608486031215611f5e57600080fd5b611f6784611bbe565b95602085013595506040909401359392505050565b8035801515811461112a57600080fd5b600060208284031215611f9e57600080fd5b6111a382611f7c565b60008060408385031215611fba57600080fd5b611fc383611bbe565b9150611fd160208401611f7c565b90509250929050565b60008060008060808587031215611ff057600080fd5b611ff985611bbe565b935061200760208601611bbe565b925060408501359150606085013567ffffffffffffffff81111561202a57600080fd5b8501601f8101871361203b57600080fd5b61204a87823560208401611d37565b91505092959194509250565b6080810161076b8284611e6b565b6000806040838503121561207757600080fd5b61208083611bbe565b9150611fd160208401611bbe565b600181811c908216806120a257607f821691505b6020821081036120c257634e487b7160e01b600052602260045260246000fd5b50919050565b601f821115610ad957600081815260208120601f850160051c810160208610156120ef5750805b601f850160051c820191505b81811015611aae578281556001016120fb565b815167ffffffffffffffff81111561212857612128611d21565b61213c81612136845461208e565b846120c8565b602080601f83116001811461217157600084156121595750858301515b600019600386901b1c1916600185901b178555611aae565b600085815260208120601f198616915b828110156121a057888601518255948401946001909101908401612181565b50858210156121be5787850151600019600388901b60f8161c191681555b5050505050600190811b01905550565b634e487b7160e01b600052601160045260246000fd5b8082018082111561076b5761076b6121ce565b8181038181111561076b5761076b6121ce565b808202811582820484141761076b5761076b6121ce565b60008351612233818460208801611c1d565b835190830190612247818360208801611c1d565b01949350505050565b60008161225f5761225f6121ce565b506000190190565b6001600160a01b038581168252841660208201526040810183905260806060820181905260009061229a90830184611c41565b9695505050505050565b6000602082840312156122b657600080fd5b81516111a381611b8b56fea26469706673582212201dadf08c551df21478c050da70ee81f541259e37b0e7929bb81c855a7a7df0f764736f6c6343000814003368747470733a2f2f7777772e574542534954452e78797a2f6170692f746f6b656e732f",
  "linkReferences": {},
  "deployedLinkReferences": {}
}