{
  "_format": "hh-sol-artifact-1",
  "contractName": "NFT",
  "sourceName": "contracts/NFT.sol",
  "abi": [
    {
      "inputs": [],
      "stateMutability": "nonpayable",
      "type": "constructor"
    },
    {
      "inputs": [],
      "name": "ApprovalCallerNotOwnerNorApproved",
      "type": "error"
    },
    {
      "inputs": [],
      "name": "ApprovalQueryForNonexistentToken",
      "type": "error"
    },
    {
      "inputs": [],
      "name": "BalanceQueryForZeroAddress",
      "type": "error"
    },
    {
      "inputs": [],
      "name": "CreatorTokenBase__InvalidTransferValidatorContract",
      "type": "error"
    },
    {
      "inputs": [],
      "name": "CreatorTokenBase__SetTransferValidatorFirst",
      "type": "error"
    },
    {
      "inputs": [],
      "name": "MintERC2309QuantityExceedsLimit",
      "type": "error"
    },
    {
      "inputs": [],
      "name": "MintToZeroAddress",
      "type": "error"
    },
    {
      "inputs": [],
      "name": "MintZeroQuantity",
      "type": "error"
    },
    {
      "inputs": [],
      "name": "NotCompatibleWithSpotMints",
      "type": "error"
    },
    {
      "inputs": [
        {
          "internalType": "address",
          "name": "owner",
          "type": "address"
        }
      ],
      "name": "OwnableInvalidOwner",
      "type": "error"
    },
    {
      "inputs": [
        {
          "internalType": "address",
          "name": "account",
          "type": "address"
        }
      ],
      "name": "OwnableUnauthorizedAccount",
      "type": "error"
    },
    {
      "inputs": [],
      "name": "OwnerQueryForNonexistentToken",
      "type": "error"
    },
    {
      "inputs": [],
      "name": "OwnershipNotInitializedForExtraData",
      "type": "error"
    },
    {
      "inputs": [],
      "name": "SequentialMintExceedsLimit",
      "type": "error"
    },
    {
      "inputs": [],
      "name": "SequentialUpToTooSmall",
      "type": "error"
    },
    {
      "inputs": [],
      "name": "ShouldNotMintToBurnAddress",
      "type": "error"
    },
    {
      "inputs": [],
      "name": "SpotMintTokenIdTooSmall",
      "type": "error"
    },
    {
      "inputs": [],
      "name": "TokenAlreadyExists",
      "type": "error"
    },
    {
      "inputs": [],
      "name": "TransferCallerNotOwnerNorApproved",
      "type": "error"
    },
    {
      "inputs": [],
      "name": "TransferFromIncorrectOwner",
      "type": "error"
    },
    {
      "inputs": [],
      "name": "TransferToNonERC721ReceiverImplementer",
      "type": "error"
    },
    {
      "inputs": [],
      "name": "TransferToZeroAddress",
      "type": "error"
    },
    {
      "inputs": [],
      "name": "URIQueryForNonexistentToken",
      "type": "error"
    },
    {
      "anonymous": false,
      "inputs": [
        {
          "indexed": true,
          "internalType": "address",
          "name": "owner",
          "type": "address"
        },
        {
          "indexed": true,
          "internalType": "address",
          "name": "approved",
          "type": "address"
        },
        {
          "indexed": true,
          "internalType": "uint256",
          "name": "tokenId",
          "type": "uint256"
        }
      ],
      "name": "Approval",
      "type": "event"
    },
    {
      "anonymous": false,
      "inputs": [
        {
          "indexed": true,
          "internalType": "address",
          "name": "owner",
          "type": "address"
        },
        {
          "indexed": true,
          "internalType": "address",
          "name": "operator",
          "type": "address"
        },
        {
          "indexed": false,
          "internalType": "bool",
          "name": "approved",
          "type": "bool"
        }
      ],
      "name": "ApprovalForAll",
      "type": "event"
    },
    {
      "anonymous": false,
      "inputs": [
        {
          "indexed": true,
          "internalType": "uint256",
          "name": "fromTokenId",
          "type": "uint256"
        },
        {
          "indexed": false,
          "internalType": "uint256",
          "name": "toTokenId",
          "type": "uint256"
        },
        {
          "indexed": true,
          "internalType": "address",
          "name": "from",
          "type": "address"
        },
        {
          "indexed": true,
          "internalType": "address",
          "name": "to",
          "type": "address"
        }
      ],
      "name": "ConsecutiveTransfer",
      "type": "event"
    },
    {
      "anonymous": false,
      "inputs": [
        {
          "indexed": true,
          "internalType": "address",
          "name": "previousOwner",
          "type": "address"
        },
        {
          "indexed": true,
          "internalType": "address",
          "name": "newOwner",
          "type": "address"
        }
      ],
      "name": "OwnershipTransferred",
      "type": "event"
    },
    {
      "anonymous": false,
      "inputs": [
        {
          "indexed": true,
          "internalType": "address",
          "name": "from",
          "type": "address"
        },
        {
          "indexed": true,
          "internalType": "address",
          "name": "to",
          "type": "address"
        },
        {
          "indexed": true,
          "internalType": "uint256",
          "name": "tokenId",
          "type": "uint256"
        }
      ],
      "name": "Transfer",
      "type": "event"
    },
    {
      "anonymous": false,
      "inputs": [
        {
          "indexed": false,
          "internalType": "address",
          "name": "oldValidator",
          "type": "address"
        },
        {
          "indexed": false,
          "internalType": "address",
          "name": "newValidator",
          "type": "address"
        }
      ],
      "name": "TransferValidatorUpdated",
      "type": "event"
    },
    {
      "inputs": [],
      "name": "DEFAULT_OPERATOR_WHITELIST_ID",
      "outputs": [
        {
          "internalType": "uint120",
          "name": "",
          "type": "uint120"
        }
      ],
      "stateMutability": "view",
      "type": "function"
    },
    {
      "inputs": [],
      "name": "DEFAULT_TRANSFER_SECURITY_LEVEL",
      "outputs": [
        {
          "internalType": "enum TransferSecurityLevels",
          "name": "",
          "type": "uint8"
        }
      ],
      "stateMutability": "view",
      "type": "function"
    },
    {
      "inputs": [],
      "name": "DEFAULT_TRANSFER_VALIDATOR",
      "outputs": [
        {
          "internalType": "address",
          "name": "",
          "type": "address"
        }
      ],
      "stateMutability": "view",
      "type": "function"
    },
    {
      "inputs": [],
      "name": "ROYALTY_BPS",
      "outputs": [
        {
          "internalType": "uint256",
          "name": "",
          "type": "uint256"
        }
      ],
      "stateMutability": "view",
      "type": "function"
    },
    {
      "inputs": [
        {
          "internalType": "address",
          "name": "to",
          "type": "address"
        },
        {
          "internalType": "uint256",
          "name": "tokenId",
          "type": "uint256"
        }
      ],
      "name": "approve",
      "outputs": [],
      "stateMutability": "payable",
      "type": "function"
    },
    {
      "inputs": [
        {
          "internalType": "address",
          "name": "owner",
          "type": "address"
        }
      ],
      "name": "balanceOf",
      "outputs": [
        {
          "internalType": "uint256",
          "name": "",
          "type": "uint256"
        }
      ],
      "stateMutability": "view",
      "type": "function"
    },
    {
      "inputs": [],
      "name": "baseURI",
      "outputs": [
        {
          "internalType": "string",
          "name": "",
          "type": "string"
        }
      ],
      "stateMutability": "view",
      "type": "function"
    },
    {
      "inputs": [
        {
          "internalType": "uint256",
          "name": "salePrice",
          "type": "uint256"
        }
      ],
      "name": "calculateRoyaltyFee",
      "outputs": [
        {
          "internalType": "uint256",
          "name": "",
          "type": "uint256"
        }
      ],
      "stateMutability": "pure",
      "type": "function"
    },
    {
      "inputs": [],
      "name": "cost",
      "outputs": [
        {
          "internalType": "uint256",
          "name": "",
          "type": "uint256"
        }
      ],
      "stateMutability": "view",
      "type": "function"
    },
    {
      "inputs": [],
      "name": "flipSale",
      "outputs": [],
      "stateMutability": "nonpayable",
      "type": "function"
    },
    {
      "inputs": [
        {
          "internalType": "uint256",
          "name": "tokenId",
          "type": "uint256"
        }
      ],
      "name": "getApproved",
      "outputs": [
        {
          "internalType": "address",
          "name": "",
          "type": "address"
        }
      ],
      "stateMutability": "view",
      "type": "function"
    },
    {
      "inputs": [],
      "name": "getPermittedContractReceivers",
      "outputs": [
        {
          "internalType": "address[]",
          "name": "",
          "type": "address[]"
        }
      ],
      "stateMutability": "view",
      "type": "function"
    },
    {
      "inputs": [],
      "name": "getSecurityPolicy",
      "outputs": [
        {
          "components": [
            {
              "internalType": "enum TransferSecurityLevels",
              "name": "transferSecurityLevel",
              "type": "uint8"
            },
            {
              "internalType": "uint120",
              "name": "operatorWhitelistId",
              "type": "uint120"
            },
            {
              "internalType": "uint120",
              "name": "permittedContractReceiversId",
              "type": "uint120"
            }
          ],
          "internalType": "struct CollectionSecurityPolicy",
          "name": "",
          "type": "tuple"
        }
      ],
      "stateMutability": "view",
      "type": "function"
    },
    {
      "inputs": [],
      "name": "getTransferValidator",
      "outputs": [
        {
          "internalType": "contract ICreatorTokenTransferValidator",
          "name": "",
          "type": "address"
        }
      ],
      "stateMutability": "view",
      "type": "function"
    },
    {
      "inputs": [],
      "name": "getWhitelistedOperators",
      "outputs": [
        {
          "internalType": "address[]",
          "name": "",
          "type": "address[]"
        }
      ],
      "stateMutability": "view",
      "type": "function"
    },
    {
      "inputs": [
        {
          "internalType": "address",
          "name": "owner",
          "type": "address"
        },
        {
          "internalType": "address",
          "name": "operator",
          "type": "address"
        }
      ],
      "name": "isApprovedForAll",
      "outputs": [
        {
          "internalType": "bool",
          "name": "",
          "type": "bool"
        }
      ],
      "stateMutability": "view",
      "type": "function"
    },
    {
      "inputs": [
        {
          "internalType": "address",
          "name": "receiver",
          "type": "address"
        }
      ],
      "name": "isContractReceiverPermitted",
      "outputs": [
        {
          "internalType": "bool",
          "name": "",
          "type": "bool"
        }
      ],
      "stateMutability": "view",
      "type": "function"
    },
    {
      "inputs": [
        {
          "internalType": "address",
          "name": "operator",
          "type": "address"
        }
      ],
      "name": "isOperatorWhitelisted",
      "outputs": [
        {
          "internalType": "bool",
          "name": "",
          "type": "bool"
        }
      ],
      "stateMutability": "view",
      "type": "function"
    },
    {
      "inputs": [],
      "name": "isSaleActive",
      "outputs": [
        {
          "internalType": "bool",
          "name": "",
          "type": "bool"
        }
      ],
      "stateMutability": "view",
      "type": "function"
    },
    {
      "inputs": [
        {
          "internalType": "address",
          "name": "caller",
          "type": "address"
        },
        {
          "internalType": "address",
          "name": "from",
          "type": "address"
        },
        {
          "internalType": "address",
          "name": "to",
          "type": "address"
        }
      ],
      "name": "isTransferAllowed",
      "outputs": [
        {
          "internalType": "bool",
          "name": "",
          "type": "bool"
        }
      ],
      "stateMutability": "view",
      "type": "function"
    },
    {
      "inputs": [],
      "name": "maxSupply",
      "outputs": [
        {
          "internalType": "uint256",
          "name": "",
          "type": "uint256"
        }
      ],
      "stateMutability": "view",
      "type": "function"
    },
    {
      "inputs": [
        {
          "internalType": "uint256",
          "name": "count",
          "type": "uint256"
        }
      ],
      "name": "mint",
      "outputs": [],
      "stateMutability": "payable",
      "type": "function"
    },
    {
      "inputs": [],
      "name": "name",
      "outputs": [
        {
          "internalType": "string",
          "name": "",
          "type": "string"
        }
      ],
      "stateMutability": "view",
      "type": "function"
    },
    {
      "inputs": [],
      "name": "owner",
      "outputs": [
        {
          "internalType": "address",
          "name": "",
          "type": "address"
        }
      ],
      "stateMutability": "view",
      "type": "function"
    },
    {
      "inputs": [
        {
          "internalType": "uint256",
          "name": "tokenId",
          "type": "uint256"
        }
      ],
      "name": "ownerOf",
      "outputs": [
        {
          "internalType": "address",
          "name": "",
          "type": "address"
        }
      ],
      "stateMutability": "view",
      "type": "function"
    },
    {
      "inputs": [],
      "name": "renounceOwnership",
      "outputs": [],
      "stateMutability": "nonpayable",
      "type": "function"
    },
    {
      "inputs": [],
      "name": "royaltyRecipient",
      "outputs": [
        {
          "internalType": "address",
          "name": "",
          "type": "address"
        }
      ],
      "stateMutability": "view",
      "type": "function"
    },
    {
      "inputs": [
        {
          "internalType": "address",
          "name": "from",
          "type": "address"
        },
        {
          "internalType": "address",
          "name": "to",
          "type": "address"
        },
        {
          "internalType": "uint256",
          "name": "tokenId",
          "type": "uint256"
        }
      ],
      "name": "safeTransferFrom",
      "outputs": [],
      "stateMutability": "payable",
      "type": "function"
    },
    {
      "inputs": [
        {
          "internalType": "address",
          "name": "from",
          "type": "address"
        },
        {
          "internalType": "address",
          "name": "to",
          "type": "address"
        },
        {
          "internalType": "uint256",
          "name": "tokenId",
          "type": "uint256"
        },
        {
          "internalType": "bytes",
          "name": "_data",
          "type": "bytes"
        }
      ],
      "name": "safeTransferFrom",
      "outputs": [],
      "stateMutability": "payable",
      "type": "function"
    },
    {
      "inputs": [
        {
          "internalType": "address",
          "name": "operator",
          "type": "address"
        },
        {
          "internalType": "bool",
          "name": "approved",
          "type": "bool"
        }
      ],
      "name": "setApprovalForAll",
      "outputs": [],
      "stateMutability": "nonpayable",
      "type": "function"
    },
    {
      "inputs": [
        {
          "internalType": "string",
          "name": "uri",
          "type": "string"
        }
      ],
      "name": "setBaseURI",
      "outputs": [],
      "stateMutability": "nonpayable",
      "type": "function"
    },
    {
      "inputs": [
        {
          "internalType": "uint256",
          "name": "cost_",
          "type": "uint256"
        }
      ],
      "name": "setCost",
      "outputs": [],
      "stateMutability": "nonpayable",
      "type": "function"
    },
    {
      "inputs": [
        {
          "internalType": "address",
          "name": "newRecipient",
          "type": "address"
        }
      ],
      "name": "setRoyaltyRecipient",
      "outputs": [],
      "stateMutability": "nonpayable",
      "type": "function"
    },
    {
      "inputs": [
        {
          "internalType": "uint256",
          "name": "supply_",
          "type": "uint256"
        }
      ],
      "name": "setSupply",
      "outputs": [],
      "stateMutability": "nonpayable",
      "type": "function"
    },
    {
      "inputs": [
        {
          "internalType": "enum TransferSecurityLevels",
          "name": "level",
          "type": "uint8"
        },
        {
          "internalType": "uint120",
          "name": "operatorWhitelistId",
          "type": "uint120"
        },
        {
          "internalType": "uint120",
          "name": "permittedContractReceiversAllowlistId",
          "type": "uint120"
        }
      ],
      "name": "setToCustomSecurityPolicy",
      "outputs": [],
      "stateMutability": "nonpayable",
      "type": "function"
    },
    {
      "inputs": [
        {
          "internalType": "address",
          "name": "validator",
          "type": "address"
        },
        {
          "internalType": "enum TransferSecurityLevels",
          "name": "level",
          "type": "uint8"
        },
        {
          "internalType": "uint120",
          "name": "operatorWhitelistId",
          "type": "uint120"
        },
        {
          "internalType": "uint120",
          "name": "permittedContractReceiversAllowlistId",
          "type": "uint120"
        }
      ],
      "name": "setToCustomValidatorAndSecurityPolicy",
      "outputs": [],
      "stateMutability": "nonpayable",
      "type": "function"
    },
    {
      "inputs": [],
      "name": "setToDefaultSecurityPolicy",
      "outputs": [],
      "stateMutability": "nonpayable",
      "type": "function"
    },
    {
      "inputs": [
        {
          "internalType": "address",
          "name": "transferValidator_",
          "type": "address"
        }
      ],
      "name": "setTransferValidator",
      "outputs": [],
      "stateMutability": "nonpayable",
      "type": "function"
    },
    {
      "inputs": [
        {
          "internalType": "bytes4",
          "name": "interfaceId",
          "type": "bytes4"
        }
      ],
      "name": "supportsInterface",
      "outputs": [
        {
          "internalType": "bool",
          "name": "",
          "type": "bool"
        }
      ],
      "stateMutability": "view",
      "type": "function"
    },
    {
      "inputs": [],
      "name": "symbol",
      "outputs": [
        {
          "internalType": "string",
          "name": "",
          "type": "string"
        }
      ],
      "stateMutability": "view",
      "type": "function"
    },
    {
      "inputs": [],
      "name": "teamMint",
      "outputs": [],
      "stateMutability": "nonpayable",
      "type": "function"
    },
    {
      "inputs": [
        {
          "internalType": "uint256",
          "name": "tokenId",
          "type": "uint256"
        }
      ],
      "name": "tokenURI",
      "outputs": [
        {
          "internalType": "string",
          "name": "",
          "type": "string"
        }
      ],
      "stateMutability": "view",
      "type": "function"
    },
    {
      "inputs": [],
      "name": "totalSupply",
      "outputs": [
        {
          "internalType": "uint256",
          "name": "result",
          "type": "uint256"
        }
      ],
      "stateMutability": "view",
      "type": "function"
    },
    {
      "inputs": [
        {
          "internalType": "address",
          "name": "from",
          "type": "address"
        },
        {
          "internalType": "address",
          "name": "to",
          "type": "address"
        },
        {
          "internalType": "uint256",
          "name": "tokenId",
          "type": "uint256"
        }
      ],
      "name": "transferFrom",
      "outputs": [],
      "stateMutability": "payable",
      "type": "function"
    },
    {
      "inputs": [
        {
          "internalType": "address",
          "name": "newOwner",
          "type": "address"
        }
      ],
      "name": "transferOwnership",
      "outputs": [],
      "stateMutability": "nonpayable",
      "type": "function"
    }
  ],
  "bytecode": "0x6618838370f34000600b5560e0604052602360808181529062002c2460a039600c906200002d908262000207565b506103e7600d55600e805460ff191660011790553480156200004e57600080fd5b503360405180604001604052806007815260200166426f6f6765727360c81b8152506040518060400160405280600381526020016213919560ea1b815250818181600290816200009f919062000207565b506003620000ae828262000207565b505060016000555050506001600160a01b038116620000e757604051631e4fbdf760e01b81526000600482015260240160405180910390fd5b620000f28162000110565b50600e8054610100600160a81b0319163361010002179055620002d3565b600a80546001600160a01b038381166001600160a01b0319831681179093556040519116919082907f8be0079c531659141344cd1fd0a4f28419497f9722a3daafe3b4186f6b6457e090600090a35050565b634e487b7160e01b600052604160045260246000fd5b600181811c908216806200018d57607f821691505b602082108103620001ae57634e487b7160e01b600052602260045260246000fd5b50919050565b601f8211156200020257600081815260208120601f850160051c81016020861015620001dd5750805b601f850160051c820191505b81811015620001fe57828155600101620001e9565b5050505b505050565b81516001600160401b0381111562000223576200022362000162565b6200023b8162000234845462000178565b84620001b4565b602080601f8311600181146200027357600084156200025a5750858301515b600019600386901b1c1916600185901b178555620001fe565b600085815260208120601f198616915b82811015620002a45788860151825594840194600190910190840162000283565b5085821015620002c35787850151600019600388901b60f8161c191681555b5050505050600190811b01905550565b61294180620002e36000396000f3fe6080604052600436106102725760003560e01c80635d4c1d461161014f578063a0712d68116100c1578063c87b56dd1161007a578063c87b56dd14610711578063d007af5c14610731578063d5abeb0114610746578063e985e9c51461075c578063f2fde38b146107a5578063fd762d92146107c557600080fd5b8063a0712d6814610674578063a22cb46514610687578063a9fc664e146106a7578063b88d4fde146106c7578063ba7a86b8146106da578063be537f43146106ef57600080fd5b806370a082311161011357806370a08231146105d7578063715018a6146105f75780637ba5e6211461060c5780638da5cb5b1461062157806395d89b411461063f5780639d645a441461065457600080fd5b80635d4c1d4614610540578063613471621461056d5780636352211e1461058d5780636c0360eb146105ad5780636c3b8699146105c257600080fd5b806323b872dd116101e857806344a0d68a116101ac57806344a0d68a14610489578063495c8bf9146104a957806349c657db146104cb5780634c00de82146104e157806355f804b314610506578063564566a81461052657600080fd5b806323b872dd146104035780632e8da829146104165780633b4c4b251461043657806341e42f301461045657806342842e0e1461047657600080fd5b8063095ea7b31161023a578063095ea7b31461035a578063098144d41461036f57806313faede61461038d57806318160ddd146103a35780631b25b077146103c15780631c33b328146103e157600080fd5b8063014635461461027757806301ffc9a7146102ba5780630667a7ce146102ea57806306fdde0314610318578063081812fc1461033a575b600080fd5b34801561028357600080fd5b5061029d71721c310194ccfc01e523fc93c9cccfa2a0ac81565b6040516001600160a01b0390911681526020015b60405180910390f35b3480156102c657600080fd5b506102da6102d5366004611fff565b6107e5565b60405190151581526020016102b1565b3480156102f657600080fd5b5061030a61030536600461201c565b610810565b6040519081526020016102b1565b34801561032457600080fd5b5061032d61082b565b6040516102b19190612085565b34801561034657600080fd5b5061029d61035536600461201c565b6108bd565b61036d6103683660046120ad565b6108f8565b005b34801561037b57600080fd5b506009546001600160a01b031661029d565b34801561039957600080fd5b5061030a600b5481565b3480156103af57600080fd5b5061030a600154600054036000190190565b3480156103cd57600080fd5b506102da6103dc3660046120d9565b610908565b3480156103ed57600080fd5b506103f6600181565b6040516102b19190612146565b61036d610411366004612154565b6109a1565b34801561042257600080fd5b506102da610431366004612195565b610b20565b34801561044257600080fd5b5061036d61045136600461201c565b610c2c565b34801561046257600080fd5b5061036d610471366004612195565b610c39565b61036d610484366004612154565b610c69565b34801561049557600080fd5b5061036d6104a436600461201c565b610c89565b3480156104b557600080fd5b506104be610c96565b6040516102b191906121b2565b3480156104d757600080fd5b5061030a6101f481565b3480156104ed57600080fd5b50600e5461029d9061010090046001600160a01b031681565b34801561051257600080fd5b5061036d61052136600461229e565b610da7565b34801561053257600080fd5b50600e546102da9060ff1681565b34801561054c57600080fd5b50610555600181565b6040516001600160781b0390911681526020016102b1565b34801561057957600080fd5b5061036d610588366004612309565b610dbb565b34801561059957600080fd5b5061029d6105a836600461201c565b610f26565b3480156105b957600080fd5b5061032d610f31565b3480156105ce57600080fd5b5061036d610fbf565b3480156105e357600080fd5b5061030a6105f2366004612195565b6110b8565b34801561060357600080fd5b5061036d6110fe565b34801561061857600080fd5b5061036d611112565b34801561062d57600080fd5b50600a546001600160a01b031661029d565b34801561064b57600080fd5b5061032d61112e565b34801561066057600080fd5b506102da61066f366004612195565b61113d565b61036d61068236600461201c565b611205565b34801561069357600080fd5b5061036d6106a2366004612357565b61138b565b3480156106b357600080fd5b5061036d6106c2366004612195565b611404565b61036d6106d5366004612390565b611525565b3480156106e657600080fd5b5061036d611560565b3480156106fb57600080fd5b50610704611573565b6040516102b19190612410565b34801561071d57600080fd5b5061032d61072c36600461201c565b61162e565b34801561073d57600080fd5b506104be6116cf565b34801561075257600080fd5b5061030a600d5481565b34801561076857600080fd5b506102da61077736600461244c565b6001600160a01b03918216600090815260076020908152604080832093909416825291909152205460ff1690565b3480156107b157600080fd5b5061036d6107c0366004612195565b611788565b3480156107d157600080fd5b5061036d6107e036600461247a565b6117c3565b60006001600160e01b031982166310c8aba560e31b148061080a575061080a826118c2565b92915050565b60006127106108216101f4846124ec565b61080a9190612503565b60606002805461083a90612525565b80601f016020809104026020016040519081016040528092919081815260200182805461086690612525565b80156108b35780601f10610888576101008083540402835291602001916108b3565b820191906000526020600020905b81548152906001019060200180831161089657829003601f168201915b5050505050905090565b60006108c882611910565b6108dc576108dc6333d1c03960e21b61195e565b506000908152600660205260409020546001600160a01b031690565b61090482826001611968565b5050565b6009546000906001600160a01b0316156109965760095460405163050bf71960e31b81526001600160a01b038681166004830152858116602483015284811660448301529091169063285fb8c89060640160006040518083038186803b15801561097157600080fd5b505afa925050508015610982575060015b61098e5750600061099a565b50600161099a565b5060015b9392505050565b60006109ac82611a0b565b6001600160a01b0394851694909150811684146109d2576109d262a1148160e81b61195e565b60008281526006602052604090208054338082146001600160a01b03881690911417610a1657610a028633610777565b610a1657610a16632ce44b5f60e11b61195e565b610a238686866001611aac565b8015610a2e57600082555b6001600160a01b038681166000908152600560205260408082208054600019019055918716808252919020805460010190554260a01b17600160e11b17600085815260046020526040812091909155600160e11b84169003610ac057600184016000818152600460205260408120549003610abe576000548114610abe5760008181526004602052604090208490555b505b6001600160a01b0385168481887fddf252ad1be2c89b69c2b068fc378daa952ba7f163c4a11628f55a4df523b3ef600080a480600003610b0a57610b0a633a954ecd60e21b61195e565b610b178787876001611ada565b50505050505050565b6009546000906001600160a01b031615610c2457600954604051635caaa2a960e11b81523060048201526001600160a01b039091169063d72dde5e90829063b955455290602401606060405180830381865afa158015610b84573d6000803e3d6000fd5b505050506040513d601f19601f82011682018060405250810190610ba8919061255f565b602001516040516001600160e01b031960e084901b1681526001600160781b0390911660048201526001600160a01b03851660248201526044015b602060405180830381865afa158015610c00573d6000803e3d6000fd5b505050506040513d601f19601f8201168201806040525081019061080a91906125d1565b506000919050565b610c34611b01565b600d55565b610c41611b01565b600e80546001600160a01b0390921661010002610100600160a81b0319909216919091179055565b610c8483838360405180602001604052806000815250611525565b505050565b610c91611b01565b600b55565b6009546060906001600160a01b031615610d9457600954604051635caaa2a960e11b81523060048201526001600160a01b0390911690633fe5df9990829063b955455290602401606060405180830381865afa158015610cfa573d6000803e3d6000fd5b505050506040513d601f19601f82011682018060405250810190610d1e919061255f565b602001516040516001600160e01b031960e084901b1681526001600160781b0390911660048201526024015b600060405180830381865afa158015610d67573d6000803e3d6000fd5b505050506040513d6000823e601f3d908101601f19168201604052610d8f91908101906125ee565b905090565b5060408051600081526020810190915290565b610daf611b01565b600c61090482826126ee565b610dc3611b2e565b6000610dd76009546001600160a01b031690565b90506001600160a01b038116610e0057604051631cffe3dd60e11b815260040160405180910390fd5b604051630368065360e61b81526001600160a01b0382169063da0194c090610e2e90309088906004016127ae565b600060405180830381600087803b158015610e4857600080fd5b505af1158015610e5c573d6000803e3d6000fd5b5050604051631182550160e11b81526001600160a01b0384169250632304aa029150610e8e90309087906004016127cb565b600060405180830381600087803b158015610ea857600080fd5b505af1158015610ebc573d6000803e3d6000fd5b505060405163235d10c560e21b81526001600160a01b0384169250638d7443149150610eee90309086906004016127cb565b600060405180830381600087803b158015610f0857600080fd5b505af1158015610f1c573d6000803e3d6000fd5b5050505050505050565b600061080a82611a0b565b600c8054610f3e90612525565b80601f0160208091040260200160405190810160405280929190818152602001828054610f6a90612525565b8015610fb75780601f10610f8c57610100808354040283529160200191610fb7565b820191906000526020600020905b815481529060010190602001808311610f9a57829003601f168201915b505050505081565b610fc7611b2e565b610fe271721c310194ccfc01e523fc93c9cccfa2a0ac611404565b604051630368065360e61b815271721c310194ccfc01e523fc93c9cccfa2a0ac9063da0194c09061101a9030906001906004016127ae565b600060405180830381600087803b15801561103457600080fd5b505af1158015611048573d6000803e3d6000fd5b5050604051631182550160e11b815271721c310194ccfc01e523fc93c9cccfa2a0ac9250632304aa0291506110849030906001906004016127cb565b600060405180830381600087803b15801561109e57600080fd5b505af11580156110b2573d6000803e3d6000fd5b50505050565b60006001600160a01b0382166110d8576110d86323d3ad8160e21b61195e565b506001600160a01b031660009081526005602052604090205467ffffffffffffffff1690565b611106611b01565b6111106000611b97565b565b61111a611b01565b600e805460ff19811660ff90911615179055565b60606003805461083a90612525565b6009546000906001600160a01b031615610c2457600954604051635caaa2a960e11b81523060048201526001600160a01b0390911690639445f53090829063b955455290602401606060405180830381865afa1580156111a1573d6000803e3d6000fd5b505050506040513d601f19601f820116820180604052508101906111c5919061255f565b60409081015190516001600160e01b031960e084901b1681526001600160781b0390911660048201526001600160a01b0385166024820152604401610be3565b600e5460ff166112515760405162461bcd60e51b815260206004820152601260248201527153616c65206973206e6f742061637469766560701b60448201526064015b60405180910390fd5b600d5481611266600154600054036000190190565b61127091906127ed565b11156112b75760405162461bcd60e51b815260206004820152601660248201527513585e1a5b5d5b481cdd5c1c1b1e481c995858da195960521b6044820152606401611248565b6112c0336110b8565b60000361132a576112d2600182612800565b600b546112df91906124ec565b3410156113255760405162461bcd60e51b8152602060048201526014602482015273125b9cdd59999a58da595b9d0814185e5b595b9d60621b6044820152606401611248565b61137e565b80600b5461133891906124ec565b34101561137e5760405162461bcd60e51b8152602060048201526014602482015273125b9cdd59999a58da595b9d0814185e5b595b9d60621b6044820152606401611248565b6113883382611be9565b50565b3360008181526007602090815260408083206001600160a01b0387168085529252909120805460ff1916841515179055906001600160a01b03167f17307eab39ab6107e8899845ad3d59bd9653f200f220920489ca2b5937696c31836040516113f8911515815260200190565b60405180910390a35050565b61140c611b2e565b60006001600160a01b0382163b15611487576040516301ffc9a760e01b8152600060048201526001600160a01b038316906301ffc9a790602401602060405180830381865afa92505050801561147f575060408051601f3d908101601f1916820190925261147c918101906125d1565b60015b156114875790505b6001600160a01b0382161580159061149d575080155b156114bb576040516332483afb60e01b815260040160405180910390fd5b600954604080516001600160a01b03928316815291841660208301527fcc5dc080ff977b3c3a211fa63ab74f90f658f5ba9d3236e92c8f59570f442aac910160405180910390a150600980546001600160a01b0319166001600160a01b0392909216919091179055565b6115308484846109a1565b6001600160a01b0383163b156110b25761154c84848484611c03565b6110b2576110b26368d2bf6b60e11b61195e565b611568611b01565b611110336001611be9565b60408051606081018252600080825260208201819052918101919091526009546001600160a01b03161561160d57600954604051635caaa2a960e11b81523060048201526001600160a01b039091169063b955455290602401606060405180830381865afa1580156115e9573d6000803e3d6000fd5b505050506040513d601f19601f82011682018060405250810190610d8f919061255f565b50604080516060810182526000808252602082018190529181019190915290565b606061163982611910565b61169d5760405162461bcd60e51b815260206004820152602f60248201527f4552433732314d657461646174613a2055524920717565727920666f72206e6f60448201526e3732bc34b9ba32b73a103a37b5b2b760891b6064820152608401611248565b600c6116a883611ce6565b6040516020016116b9929190612813565b6040516020818303038152906040529050919050565b6009546060906001600160a01b031615610d9457600954604051635caaa2a960e11b81523060048201526001600160a01b03909116906317e94a6c90829063b955455290602401606060405180830381865afa158015611733573d6000803e3d6000fd5b505050506040513d601f19601f82011682018060405250810190611757919061255f565b60409081015190516001600160e01b031960e084901b1681526001600160781b039091166004820152602401610d4a565b611790611b01565b6001600160a01b0381166117ba57604051631e4fbdf760e01b815260006004820152602401611248565b61138881611b97565b6117cb611b2e565b6117d484611404565b604051630368065360e61b81526001600160a01b0385169063da0194c09061180290309087906004016127ae565b600060405180830381600087803b15801561181c57600080fd5b505af1158015611830573d6000803e3d6000fd5b5050604051631182550160e11b81526001600160a01b0387169250632304aa02915061186290309086906004016127cb565b600060405180830381600087803b15801561187c57600080fd5b505af1158015611890573d6000803e3d6000fd5b505060405163235d10c560e21b81526001600160a01b0387169250638d7443149150610eee90309085906004016127cb565b60006301ffc9a760e01b6001600160e01b0319831614806118f357506380ac58cd60e01b6001600160e01b03198316145b8061080a5750506001600160e01b031916635b5e139f60e01b1490565b600081600111611959576000548210156119595760005b506000828152600460205260408120549081900361194f576119488361289a565b9250611927565b600160e01b161590505b919050565b8060005260046000fd5b600061197383610f26565b905081801561198b5750336001600160a01b03821614155b156119ae5761199a8133610777565b6119ae576119ae6367d9dca160e11b61195e565b60008381526006602052604080822080546001600160a01b0319166001600160a01b0388811691821790925591518693918516917f8c5be1e5ebec7d5bd14f71427d1e84f3dd0314c0f7b2291e5b200ac8c7c3b92591a450505050565b600081600111611a9c575060008181526004602052604090205480600003611a89576000548210611a4657611a46636f96cda160e11b61195e565b5b50600019016000818152600460205260409020548015611a4757600160e01b8116600003611a7457919050565b611a84636f96cda160e11b61195e565b611a47565b600160e01b8116600003611a9c57919050565b611959636f96cda160e11b61195e565b60005b81811015611ad357611acb8585611ac684876127ed565b611d79565b600101611aaf565b5050505050565b60005b81811015611ad357611af98585611af484876127ed565b611d91565b600101611add565b600a546001600160a01b031633146111105760405163118cdaa760e01b8152336004820152602401611248565b33611b41600a546001600160a01b031690565b6001600160a01b0316146111105760405162461bcd60e51b815260206004820181905260248201527f43616c6c6572206973206e6f742074686520636f6e7472616374206f776e65726044820152606401611248565b600a80546001600160a01b038381166001600160a01b0319831681179093556040519116919082907f8be0079c531659141344cd1fd0a4f28419497f9722a3daafe3b4186f6b6457e090600090a35050565b610904828260405180602001604052806000815250611ddf565b604051630a85bd0160e11b81526000906001600160a01b0385169063150b7a0290611c389033908990889088906004016128b1565b6020604051808303816000875af1925050508015611c73575060408051601f3d908101601f19168201909252611c70918101906128ee565b60015b611cc8573d808015611ca1576040519150601f19603f3d011682016040523d82523d6000602084013e611ca6565b606091505b508051600003611cc057611cc06368d2bf6b60e11b61195e565b805181602001fd5b6001600160e01b031916630a85bd0160e11b1490505b949350505050565b60606000611cf383611e3c565b600101905060008167ffffffffffffffff811115611d1357611d136121ff565b6040519080825280601f01601f191660200182016040528015611d3d576020820181803683370190505b5090508181016020015b600019016f181899199a1a9b1b9c1cb0b131b232b360811b600a86061a8153600a8504945084611d4757509392505050565b6001600160a01b038316158015906110b25750505050565b6001600160a01b038381161590831615818015611dab5750805b15611dc957604051635cbd944160e01b815260040160405180910390fd5b8115611dd5575b611ad3565b80611dd057611ad3565b611de98383611f14565b6001600160a01b0383163b15610c84576000548281035b611e136000868380600101945086611c03565b611e2757611e276368d2bf6b60e11b61195e565b818110611e00578160005414611ad357600080fd5b60008072184f03e93ff9f4daa797ed6e38ed64bf6a1f0160401b8310611e7b5772184f03e93ff9f4daa797ed6e38ed64bf6a1f0160401b830492506040015b6d04ee2d6d415b85acef81000000008310611ea7576d04ee2d6d415b85acef8100000000830492506020015b662386f26fc100008310611ec557662386f26fc10000830492506010015b6305f5e1008310611edd576305f5e100830492506008015b6127108310611ef157612710830492506004015b60648310611f03576064830492506002015b600a831061080a5760010192915050565b6000805490829003611f3057611f3063b562e8dd60e01b61195e565b611f3d6000848385611aac565b60008181526004602090815260408083206001600160a01b0387164260a01b6001881460e11b17811790915580845260059092528220805468010000000000000001860201905590819003611f9b57611f9b622e076360e81b61195e565b818301825b808360007fddf252ad1be2c89b69c2b068fc378daa952ba7f163c4a11628f55a4df523b3ef600080a4818160010191508103611fa057506000908155610c849150848385611ada565b6001600160e01b03198116811461138857600080fd5b60006020828403121561201157600080fd5b813561099a81611fe9565b60006020828403121561202e57600080fd5b5035919050565b60005b83811015612050578181015183820152602001612038565b50506000910152565b60008151808452612071816020860160208601612035565b601f01601f19169290920160200192915050565b60208152600061099a6020830184612059565b6001600160a01b038116811461138857600080fd5b600080604083850312156120c057600080fd5b82356120cb81612098565b946020939093013593505050565b6000806000606084860312156120ee57600080fd5b83356120f981612098565b9250602084013561210981612098565b9150604084013561211981612098565b809150509250925092565b6007811061214257634e487b7160e01b600052602160045260246000fd5b9052565b6020810161080a8284612124565b60008060006060848603121561216957600080fd5b833561217481612098565b9250602084013561218481612098565b929592945050506040919091013590565b6000602082840312156121a757600080fd5b813561099a81612098565b6020808252825182820181905260009190848201906040850190845b818110156121f35783516001600160a01b0316835292840192918401916001016121ce565b50909695505050505050565b634e487b7160e01b600052604160045260246000fd5b604051601f8201601f1916810167ffffffffffffffff8111828210171561223e5761223e6121ff565b604052919050565b600067ffffffffffffffff831115612260576122606121ff565b612273601f8401601f1916602001612215565b905082815283838301111561228757600080fd5b828260208301376000602084830101529392505050565b6000602082840312156122b057600080fd5b813567ffffffffffffffff8111156122c757600080fd5b8201601f810184136122d857600080fd5b611cde84823560208401612246565b6007811061138857600080fd5b6001600160781b038116811461138857600080fd5b60008060006060848603121561231e57600080fd5b8335612329816122e7565b92506020840135612339816122f4565b91506040840135612119816122f4565b801515811461138857600080fd5b6000806040838503121561236a57600080fd5b823561237581612098565b9150602083013561238581612349565b809150509250929050565b600080600080608085870312156123a657600080fd5b84356123b181612098565b935060208501356123c181612098565b925060408501359150606085013567ffffffffffffffff8111156123e457600080fd5b8501601f810187136123f557600080fd5b61240487823560208401612246565b91505092959194509250565b6000606082019050612423828451612124565b60208301516001600160781b038082166020850152806040860151166040850152505092915050565b6000806040838503121561245f57600080fd5b823561246a81612098565b9150602083013561238581612098565b6000806000806080858703121561249057600080fd5b843561249b81612098565b935060208501356124ab816122e7565b925060408501356124bb816122f4565b915060608501356124cb816122f4565b939692955090935050565b634e487b7160e01b600052601160045260246000fd5b808202811582820484141761080a5761080a6124d6565b60008261252057634e487b7160e01b600052601260045260246000fd5b500490565b600181811c9082168061253957607f821691505b60208210810361255957634e487b7160e01b600052602260045260246000fd5b50919050565b60006060828403121561257157600080fd5b6040516060810181811067ffffffffffffffff82111715612594576125946121ff565b60405282516125a2816122e7565b815260208301516125b2816122f4565b602082015260408301516125c5816122f4565b60408201529392505050565b6000602082840312156125e357600080fd5b815161099a81612349565b6000602080838503121561260157600080fd5b825167ffffffffffffffff8082111561261957600080fd5b818501915085601f83011261262d57600080fd5b81518181111561263f5761263f6121ff565b8060051b9150612650848301612215565b818152918301840191848101908884111561266a57600080fd5b938501935b83851015612694578451925061268483612098565b828252938501939085019061266f565b98975050505050505050565b601f821115610c8457600081815260208120601f850160051c810160208610156126c75750805b601f850160051c820191505b818110156126e6578281556001016126d3565b505050505050565b815167ffffffffffffffff811115612708576127086121ff565b61271c816127168454612525565b846126a0565b602080601f83116001811461275157600084156127395750858301515b600019600386901b1c1916600185901b1785556126e6565b600085815260208120601f198616915b8281101561278057888601518255948401946001909101908401612761565b508582101561279e5787850151600019600388901b60f8161c191681555b5050505050600190811b01905550565b6001600160a01b03831681526040810161099a6020830184612124565b6001600160a01b039290921682526001600160781b0316602082015260400190565b8082018082111561080a5761080a6124d6565b8181038181111561080a5761080a6124d6565b600080845461282181612525565b60018281168015612839576001811461284e5761287d565b60ff198416875282151583028701945061287d565b8860005260208060002060005b858110156128745781548a82015290840190820161285b565b50505082870194505b505050508351612891818360208801612035565b01949350505050565b6000816128a9576128a96124d6565b506000190190565b6001600160a01b03858116825284166020820152604081018390526080606082018190526000906128e490830184612059565b9695505050505050565b60006020828403121561290057600080fd5b815161099a81611fe956fea2646970667358221220912af00b719d8f51a4176ce388e4f6cfab62cc106ada53ad184d98025912691264736f6c6343000814003368747470733a2f2f7777772e574542534954452e78797a2f6170692f746f6b656e732f",
  "linkReferences": {},
  "deployedLinkReferences": {}
}